{
  "_format": "hh-sol-artifact-1",
  "contractName": "Pool",
  "sourceName": "contracts/Pool.sol",
  "abi": [
    {
      "inputs": [
        {
          "internalType": "string",
          "name": "_uri",
          "type": "string"
        },
        {
          "internalType": "uint256",
          "name": "_target",
          "type": "uint256"
        },
        {
          "internalType": "uint256",
          "name": "_interest",
          "type": "uint256"
        }
      ],
      "stateMutability": "nonpayable",
      "type": "constructor"
    },
    {
      "inputs": [
        {
          "internalType": "address",
          "name": "claimee",
          "type": "address"
        }
      ],
      "name": "claim",
      "outputs": [],
      "stateMutability": "nonpayable",
      "type": "function"
    },
    {
      "inputs": [
        {
          "internalType": "uint256",
          "name": "amount",
          "type": "uint256"
        }
      ],
      "name": "deposit",
      "outputs": [],
      "stateMutability": "nonpayable",
      "type": "function"
    },
    {
      "inputs": [
        {
          "internalType": "uint256",
          "name": "interestEarned",
          "type": "uint256"
        }
      ],
      "name": "depositInterest",
      "outputs": [],
      "stateMutability": "nonpayable",
      "type": "function"
    },
    {
      "inputs": [
        {
          "internalType": "address",
          "name": "",
          "type": "address"
        }
      ],
      "name": "deposits",
      "outputs": [
        {
          "internalType": "uint256",
          "name": "",
          "type": "uint256"
        }
      ],
      "stateMutability": "view",
      "type": "function"
    },
    {
      "inputs": [],
      "name": "fulfillInvestment",
      "outputs": [],
      "stateMutability": "view",
      "type": "function"
    },
    {
      "inputs": [],
      "name": "getBalance",
      "outputs": [
        {
          "internalType": "uint256",
          "name": "",
          "type": "uint256"
        }
      ],
      "stateMutability": "view",
      "type": "function"
    },
    {
      "inputs": [
        {
          "internalType": "address",
          "name": "_erc20",
          "type": "address"
        }
      ],
      "name": "linkTokenContract",
      "outputs": [],
      "stateMutability": "nonpayable",
      "type": "function"
    }
  ],
  "bytecode": "0x60806040523480156200001157600080fd5b5060405162000f0438038062000f048339818101604052810190620000379190620002ef565b82600090805190602001906200004f92919062000067565b508160038190555080600481905550505050620003cf565b828054620000759062000399565b90600052602060002090601f016020900481019282620000995760008555620000e5565b82601f10620000b457805160ff1916838001178555620000e5565b82800160010185558215620000e5579182015b82811115620000e4578251825591602001919060010190620000c7565b5b509050620000f49190620000f8565b5090565b5b8082111562000113576000816000905550600101620000f9565b5090565b6000604051905090565b600080fd5b600080fd5b600080fd5b600080fd5b6000601f19601f8301169050919050565b7f4e487b7100000000000000000000000000000000000000000000000000000000600052604160045260246000fd5b620001808262000135565b810181811067ffffffffffffffff82111715620001a257620001a162000146565b5b80604052505050565b6000620001b762000117565b9050620001c5828262000175565b919050565b600067ffffffffffffffff821115620001e857620001e762000146565b5b620001f38262000135565b9050602081019050919050565b60005b838110156200022057808201518184015260208101905062000203565b8381111562000230576000848401525b50505050565b60006200024d6200024784620001ca565b620001ab565b9050828152602081018484840111156200026c576200026b62000130565b5b6200027984828562000200565b509392505050565b600082601f8301126200029957620002986200012b565b5b8151620002ab84826020860162000236565b91505092915050565b6000819050919050565b620002c981620002b4565b8114620002d557600080fd5b50565b600081519050620002e981620002be565b92915050565b6000806000606084860312156200030b576200030a62000121565b5b600084015167ffffffffffffffff8111156200032c576200032b62000126565b5b6200033a8682870162000281565b93505060206200034d86828701620002d8565b92505060406200036086828701620002d8565b9150509250925092565b7f4e487b7100000000000000000000000000000000000000000000000000000000600052602260045260246000fd5b60006002820490506001821680620003b257607f821691505b60208210811415620003c957620003c86200036a565b5b50919050565b610b2580620003df6000396000f3fe608060405234801561001057600080fd5b506004361061007d5760003560e01c8063429137d91161005b578063429137d9146100d8578063b6b55f25146100e2578063eab36e4b146100fe578063fc7e286d1461011a5761007d565b806312065fe0146100825780631e83409a146100a0578063220c5bbb146100bc575b600080fd5b61008a61014a565b60405161009791906106fe565b60405180910390f35b6100ba60048036038101906100b5919061077c565b6101fc565b005b6100d660048036038101906100d191906107d5565b61039c565b005b6100e061053d565b005b6100fc60048036038101906100f791906107d5565b610552565b005b6101186004803603810190610113919061077c565b610689565b005b610134600480360381019061012f919061077c565b6106cd565b60405161014191906106fe565b60405180910390f35b6000600560009054906101000a900473ffffffffffffffffffffffffffffffffffffffff1673ffffffffffffffffffffffffffffffffffffffff166370a08231306040518263ffffffff1660e01b81526004016101a79190610811565b60206040518083038186803b1580156101bf57600080fd5b505afa1580156101d3573d6000803e3d6000fd5b505050506040513d601f19601f820116820180604052508101906101f79190610841565b905090565b60006004546064600260008573ffffffffffffffffffffffffffffffffffffffff1673ffffffffffffffffffffffffffffffffffffffff1681526020019081526020016000205461024d91906108cc565b61025791906108fd565b600260008473ffffffffffffffffffffffffffffffffffffffff1673ffffffffffffffffffffffffffffffffffffffff168152602001908152602001600020546102a19190610957565b90506000600260008473ffffffffffffffffffffffffffffffffffffffff1673ffffffffffffffffffffffffffffffffffffffff16815260200190815260200160002081905550600560009054906101000a900473ffffffffffffffffffffffffffffffffffffffff1673ffffffffffffffffffffffffffffffffffffffff1663a9059cbb83836040518363ffffffff1660e01b81526004016103459291906109ad565b602060405180830381600087803b15801561035f57600080fd5b505af1158015610373573d6000803e3d6000fd5b505050506040513d601f19601f820116820180604052508101906103979190610a0e565b505050565b80600560009054906101000a900473ffffffffffffffffffffffffffffffffffffffff1673ffffffffffffffffffffffffffffffffffffffff166370a08231336040518263ffffffff1660e01b81526004016103f89190610811565b60206040518083038186803b15801561041057600080fd5b505afa158015610424573d6000803e3d6000fd5b505050506040513d601f19601f820116820180604052508101906104489190610841565b11610488576040517f08c379a000000000000000000000000000000000000000000000000000000000815260040161047f90610a98565b60405180910390fd5b600560009054906101000a900473ffffffffffffffffffffffffffffffffffffffff1673ffffffffffffffffffffffffffffffffffffffff166323b872dd3330846040518463ffffffff1660e01b81526004016104e793929190610ab8565b602060405180830381600087803b15801561050157600080fd5b505af1158015610515573d6000803e3d6000fd5b505050506040513d601f19601f820116820180604052508101906105399190610a0e565b5050565b60011515600560159054906101000a90505050565b80600260003373ffffffffffffffffffffffffffffffffffffffff1673ffffffffffffffffffffffffffffffffffffffff16815260200190815260200160002060008282546105a19190610957565b925050819055506003546105b361014a565b106105d4576001600560146101000a81548160ff0219169083151502179055505b600560009054906101000a900473ffffffffffffffffffffffffffffffffffffffff1673ffffffffffffffffffffffffffffffffffffffff166323b872dd3330846040518463ffffffff1660e01b815260040161063393929190610ab8565b602060405180830381600087803b15801561064d57600080fd5b505af1158015610661573d6000803e3d6000fd5b505050506040513d601f19601f820116820180604052508101906106859190610a0e565b5050565b80600560006101000a81548173ffffffffffffffffffffffffffffffffffffffff021916908373ffffffffffffffffffffffffffffffffffffffff16021790555050565b60026020528060005260406000206000915090505481565b6000819050919050565b6106f8816106e5565b82525050565b600060208201905061071360008301846106ef565b92915050565b600080fd5b600073ffffffffffffffffffffffffffffffffffffffff82169050919050565b60006107498261071e565b9050919050565b6107598161073e565b811461076457600080fd5b50565b60008135905061077681610750565b92915050565b60006020828403121561079257610791610719565b5b60006107a084828501610767565b91505092915050565b6107b2816106e5565b81146107bd57600080fd5b50565b6000813590506107cf816107a9565b92915050565b6000602082840312156107eb576107ea610719565b5b60006107f9848285016107c0565b91505092915050565b61080b8161073e565b82525050565b60006020820190506108266000830184610802565b92915050565b60008151905061083b816107a9565b92915050565b60006020828403121561085757610856610719565b5b60006108658482850161082c565b91505092915050565b7f4e487b7100000000000000000000000000000000000000000000000000000000600052601260045260246000fd5b7f4e487b7100000000000000000000000000000000000000000000000000000000600052601160045260246000fd5b60006108d7826106e5565b91506108e2836106e5565b9250826108f2576108f161086e565b5b828204905092915050565b6000610908826106e5565b9150610913836106e5565b9250817fffffffffffffffffffffffffffffffffffffffffffffffffffffffffffffffff048311821515161561094c5761094b61089d565b5b828202905092915050565b6000610962826106e5565b915061096d836106e5565b9250827fffffffffffffffffffffffffffffffffffffffffffffffffffffffffffffffff038211156109a2576109a161089d565b5b828201905092915050565b60006040820190506109c26000830185610802565b6109cf60208301846106ef565b9392505050565b60008115159050919050565b6109eb816109d6565b81146109f657600080fd5b50565b600081519050610a08816109e2565b92915050565b600060208284031215610a2457610a23610719565b5b6000610a32848285016109f9565b91505092915050565b600082825260208201905092915050565b7f416d6f756e74206578636565647320757365722062616c616e63650000000000600082015250565b6000610a82601b83610a3b565b9150610a8d82610a4c565b602082019050919050565b60006020820190508181036000830152610ab181610a75565b9050919050565b6000606082019050610acd6000830186610802565b610ada6020830185610802565b610ae760408301846106ef565b94935050505056fea2646970667358221220df6afeb38c0a5dd2cf44b4c97b417b30472722a8c42fecab9f24ab66925f89a064736f6c63430008090033",
  "linkReferences": {},
  "deployedLinkReferences": {}
}